:100000000C9434000C9451000C94320D0C9451005B
:100010000C9451000C9451000C9451000C9451001C
:100020000C9451000C9451000C9451000C9451000C
:100030000C9451000C9451000C9451000C945100FC
:100040000C9451000C9451000C9451000C945100EC
:100050000C9451000C9451000C9451000C945100DC
:100060000C9451000C94510011241FBECFEFD8E026
:10007000DEBFCDBF12E0A0E0B1E0EAE9FAE102C0E4
:1000800005900D92AA30B107D9F722E0AAE0B2E0BC
:1000900001C01D92A932B207E1F70E940A0B0C942D
:1000A0004B0D0C940000000098E028980000882375
:1000B00014F42A9A01C02A98289A880F9150A9F717
:1000C0000895CF93C62F299A0E9453008C2F0E9427
:1000D000530029980000299ACF910895000098E0D4
:1000E0002B980000882314F42D9A01C02D982B9A88
:1000F000880F9150A9F70895CF93C62F2C9A0E948C
:100100006E008C2F0E946E002C9800002C9ACF91CC
:10011000089584B1876084B960E089E00E9461003D
:1001200067E08BE00E9461006FE08AE00E9461005E
:1001300060E08FE00E94610061E08CE00E9461005D
:100140000895883018F5683008F521E030E002C0E5
:10015000220F331F6A95E2F7442341F0E82FF0E0C5
:10016000EF5DFD4F9081292B208308C0E82FF0E040
:10017000EF5DFD4F2095908129232083E82FF0E04B
:10018000EF5DFD4F60818F5F0E9461000895FF92D7
:100190000F931F93CF93DF938830A8F4F82EC0E01D
:1001A000D0E0062F10E0A8018C2F0C2E02C0559530
:1001B00047950A94E2F741706F2D0E94A1002196A5
:1001C000C830D10581F7DF91CF911F910F91FF903A
:1001D0000895803120F4682F8AE00E94610008951C
:1001E0000F931F93CF9301E212E0C1E0F8018081E9
:1001F000882329F0108260E08C2F0E946100CF5F7D
:100200000F5F1F4FC93091F7CF911F910F91089544
:1002100084B1886384B960E089E00E947C0067E073
:100220008BE00E947C006FE08AE00E947C0060E02E
:100230008FE00E947C0061E08CE00E947C000895C9
:10024000883040F4E82FF0E0E75EFD4F60838F5F79
:100250000E947C000895803120F4682F8AE00E947B
:100260007C0008950F931F93CF9309E112E0C1E042
:10027000F8018081882329F0108260E08C2F0E9491
:100280007C00CF5F0F5F1F4FC93091F7CF911F9157
:100290000F9108951092C50083E38093C40088E114
:1002A0008093C10086E08093C2000895E0ECF0E006
:1002B000908195FFFDCF8093C6000895E0ECF0E0BB
:1002C00080818823ECF78091C6000895EF92FF9219
:1002D0000F931F93CF93DF930F2EF0E8EF2EF1E0F3
:1002E000FF2EF02DD0E08701C0E0F80181919191BF
:1002F0008F01181619062CF441E06C2F8D2F0E94E7
:10030000A100CF5FC83089F7F0E1EF0EF11CDF5F8D
:10031000D83049F7DF91CF911F910F91FF90EF9067
:100320000895EF92FF920F931F93CF93DF930F2EB9
:10033000F0E0EF2EF1E0FF2EF02DD0E08701C0E0DD
:10034000F801819191918F01181619062CF441E062
:100350006C2F8D2F0E94A100CF5FC83089F7F0E18C
:10036000EF0EF11CDF5FD83049F7DF91CF911F917D
:100370000F91FF90EF900895662309F441C18130F9
:10038000910539F481E090E090938B0180938A018C
:1003900008958230910539F481E090E090939B01BB
:1003A00080939A0108958330910539F481E090E0BB
:1003B0009093AB018093AA0108958430910539F49C
:1003C00081E090E09093AD018093AC010895853079
:1003D000910539F481E090E09093AF018093AE01F4
:1003E00008958630910539F481E090E09093BF0143
:1003F0008093BE0108958730910539F481E090E043
:100400009093CF018093CE0108958830910539F4FF
:1004100081E090E09093DF018093DE0108958930C0
:10042000910539F481E090E09093DD018093DC0147
:1004300008958A30910539F481E090E09093DB01D2
:100440008093DA0108958B30910539F481E090E0D2
:100450009093EB018093EA0108958C30910539F473
:1004600081E090E09093FB018093FA0108958D3034
:10047000910539F481E090E09093F9018093F801BF
:1004800008958E30910539F481E090E09093F70162
:100490008093F60108958F30910539F481E090E062
:1004A0009093F5018093F40108958031910539F41A
:1004B00081E090E09093E5018093E401089581311B
:1004C000910539F481E090E09093D5018093D401B7
:1004D00008958231910539F481E090E09093D30141
:1004E0008093D20108958331910539F481E090E041
:1004F0009093D1018093D00108958431910539F40E
:1005000081E090E09093C1018093C001089585310E
:10051000910539F481E090E09093B1018093B001AE
:1005200008958631910539F481E090E09093A1011E
:100530008093A00108958731910539F481E090E01E
:100540009093A3018093A20108958831910539F415
:1005500081E090E09093A5018093A40108958931F2
:10056000910539F481E090E0909395018093940196
:1005700008958A31910539F481E090E090938501E6
:100580008093840108958B31910539F481E090E0E6
:10059000909387018093860108958C31910539F4F9
:1005A00081E090E0909389018093880108958536D9
:1005B000910539F481E090E090938D0180938C0156
:1005C00008958636910539F481E090E09093EF012B
:1005D0008093EE0108958736910539F481E090E02B
:1005E0009093F3018093F20108958836910509F004
:1005F00006C181E090E0909391018093900108956D
:100600008130910529F410928B0110928A0108958E
:100610008230910529F410929B0110929A0108955D
:100620008330910529F41092AB011092AA0108952C
:100630008430910529F41092AD011092AC01089517
:100640008530910529F41092AF011092AE01089502
:100650008630910529F41092BF011092BE010895D1
:100660008730910529F41092CF011092CE010895A0
:100670008830910529F41092DF011092DE0108956F
:100680008930910529F41092DD011092DC01089562
:100690008A30910529F41092DB011092DA01089555
:1006A0008B30910529F41092EB011092EA01089524
:1006B0008C30910529F41092FB011092FA010895F3
:1006C0008D30910529F41092F9011092F8010895E6
:1006D0008E30910529F41092F7011092F6010895D9
:1006E0008F30910529F41092F5011092F4010895CC
:1006F0008031910529F41092E5011092E4010895EA
:100700008131910529F41092D5011092D4010895F8
:100710008231910529F41092D3011092D2010895EB
:100720008331910529F41092D1011092D0010895DE
:100730008431910529F41092C1011092C0010895ED
:100740008531910529F41092B1011092B0010895FC
:100750008631910529F41092A1011092A00108950B
:100760008731910529F41092A3011092A2010895F6
:100770008831910529F41092A5011092A4010895E1
:100780008931910529F410929501109294010895F0
:100790008A31910529F410928501109284010895FF
:1007A0008B31910529F410928701109286010895EA
:1007B0008C31910529F410928901109288010895D5
:1007C0008536910529F410928D0110928C010895BF
:1007D0008636910529F41092EF011092EE010895EA
:1007E0008736910529F41092F3011092F2010895D1
:1007F0008836910521F4109291011092900108958C
:100800008130910559F08830910551F08F30910574
:1008100049F021E0469739F020E005C021E003C00F
:1008200021E001C021E0822F0895CF93DF93C7E13B
:10083000D2E06EE788810E94C700888162E0815023
:100840000E94C700888162E082500E94C7008881B0
:1008500062E083500E94C70088816CE785500E9447
:10086000C700888162E086500E94C700888162E0EC
:1008700087500E94C700888162E088500E94C700AC
:1008800088816CE789500E94C70088816EE78B5091
:100890000E94C700888162E48C500E94C700888152
:1008A00062E48D500E94C70088816CE38E500E94E4
:1008B000C70088816CE380510E94C700888162E490
:1008C00081510E94C700888162E482510E94C70062
:1008D000888162E483510E94C70088816CE384515F
:1008E0000E94C700DF91CF910895CF93DF93C7E1B6
:1008F000D2E06EE788810E94C700888164E0815061
:100900000E94C700888168E382500E94C7008881E6
:1009100064E083500E94C70088816EE784500E9483
:10092000C700888162E486500E94C70088816EE714
:1009300087500E94C700888162E488500E94C700E7
:1009400088816EE78A500E94C700888160E28B50E0
:100950000E94C700888160E18C500E94C700888196
:1009600068E08D500E94C700888164E08E500E942C
:10097000C70088816EE78F500E94C70088816EE7AC
:1009800081510E94C700888160E282510E94C700A5
:10099000888160E183510E94C700888168E08451AA
:1009A0000E94C700888164E085510E94C700888149
:1009B0006EE786510E94C70088816EE788510E94C9
:1009C000C700888162E589510E94C700888162E57D
:1009D0008A510E94C700888162E48B510E94C7003F
:1009E00088816EE78D510E94C700888168E58E512D
:1009F0000E94C700888164E58F510E94C7008881EA
:100A000062E780520E94C700DF91CF9108950E9453
:100A1000F00062E285E00E94C7006EE784E00E9479
:100A2000C70062E083E00E94C70008950E94F000C2
:100A300062E285E00E94C70066E484E00E94C7008D
:100A40006AE483E00E94C70062E382E00E94C7007C
:100A500008950E94F00064E285E00E94C70062E40D
:100A600084E00E94C7006AE583E00E94C70064E258
:100A700082E00E94C70008950E94F00068E082E0D2
:100A80000E94C7006EE783E00E94C70068E284E02E
:100A90000E94C70068E185E00E94C70068E086E028
:100AA0000E94C700089510921802109217020E9427
:100AB00015042FE789EA93E0215080409040E1F748
:100AC00000C000000E94F0008FE19EE40197F1F762
:100AD00000C0000080911702909118020196909337
:100AE0001802809317024E9714F30E94F0001092A0
:100AF000180210921702089510921802109217020D
:100B00000E9475042FE789EA93E0215080409040CD
:100B1000E1F700C000000E94F0008FE19EE4019721
:100B2000F1F700C000008091170290911802019621
:100B30009093180280931702889714F30E94F00094
:100B400010921802109217020895CF93DF930E941B
:100B5000F000D0E0C0E041E06C2F8D2F0E94A1009A
:100B60002FE788E391E0215080409040E1F700C0FA
:100B70000000CF5FC83079F7DF5FD83059F72FEF2B
:100B800084E39CE0215080409040E1F700C00000E9
:100B90000E94F000DF91CF910895813329F460E342
:100BA00081E00E9420010895823329F46DE681E0FE
:100BB0000E9420010895833329F469E781E00E94AF
:100BC00020010895843329F463E381E00E94200129
:100BD0000895853329F46BE581E00E942001089592
:100BE000863321F46FE581E00E942001089561E0E1
:100BF00080911102909112020E94BC0161E08091EB
:100C00000F02909110020E94BC0161E080910D02E0
:100C100090910E020E94BC0161E080910B029091C4
:100C20000C020E94BC010895BF92CF92DF92EF9216
:100C3000FF920F931F93CF93DF93EA0179018617F9
:100C4000970709F0E8C04C3151050CF081C00F2E18
:100C5000FCE1BF2EF02D10E081309105D1F560E070
:100C600081E090E00E94BC0125E6E216F10429F43F
:100C7000B0921102109312021AC086E6E816F1042F
:100C800029F4B0920F021093100211C097E6E916F2
:100C9000F10429F4B0920D0210930E0208C028E668
:100CA000E216F10421F4B0920B0210930C020E94A0
:100CB000F7050E94F0000E9466018FEF91EE24E09C
:100CC000815090402040E1F700C000008B2D912F13
:100CD0003AC06C0121E0C21AD10860E00E94BC0158
:100CE00085E6E816F10429F4D0921202C0921102AE
:100CF0001AC096E6E916F10429F4D0921002C092C7
:100D00000F0211C027E6E216F10429F4D0920E0278
:100D1000C0920D0208C088E6E816F10421F4D092D2
:100D20000C02C0920B020E94F7050E94F0000E9484
:100D300066019FEF21EE84E0915020408040E1F772
:100D400000C00000C6012196CC31D10509F084CF46
:100D500060E00E94BC0195E6E916F10469F485E6BD
:100D600090E090931202809311028CE190E09093B6
:100D700008028093070232C026E6E216F10469F405
:100D800086E690E09093100280930F028CE190E051
:100D9000909306028093050221C087E6E816F104CD
:100DA00069F487E690E090930E0280930D028CE147
:100DB00090E0909304028093030210C098E6E91635
:100DC000F10461F488E690E090930C0280930B02AA
:100DD0008CE190E09093020280930102013421F4AF
:100DE00081E48093140211C0023421F482E48093E0
:100DF00014020BC0033421F483E48093140205C071
:100E0000043419F484E4809314020E94F7050E94CC
:100E1000F0000E946601DF91CF911F910F91FF902A
:100E2000EF90DF90CF90BF90089580910A028133B8
:100E300069F0823371F0833379F0843381F0853344
:100E400089F0863391F080E090E0089581E090E0B1
:100E5000089582E090E0089583E090E0089584E0B2
:100E600090E0089585E090E0089586E090E0089590
:100E7000EF92FF920F931F93CF93DF938C0180919A
:100E800011029091120285369105F9F40630110590
:100E900009F087C081E090E09093120280931102E4
:100EA00060E085E690E00E94BC010E94F7050E9488
:100EB000F0000E9466012FEF84E39CE02150804007
:100EC0009040E1F700C000007CC020910702309103
:100ED0000802201731070CF461C0101611060CF03F
:100EE0005DC0C0E0D0E0EE24E394F12C8C3191059C
:100EF00031F5F0921202E092110280910702909176
:100F000008020197909308028093070260E08CE149
:100F100090E00E94BC010E94F7050E94F0000E9430
:100F200066012FEF84E39CE0215080409040E1F780
:100F300000C0000080911102909112022AC02091FD
:100F40001102309112022F5F3F4F30931202209313
:100F5000110220910702309108022150310930938B
:100F600008022093070260E00E94BC010E94F7057E
:100F70000E94F0000E9466012FEF84E39CE0215064
:100F800080409040E1F700C00000809111029091F4
:100F9000120221960C171D0709F0A8CF0630110583
:100FA00081F080911502909116028230910521F412
:100FB00083E48093140205C0049719F482E48093BB
:100FC00014028091070290910802892B71F480E34A
:100FD000809314028FEF9FEF909316028093150277
:100FE0001092000281E480931302C0911102D0910B
:100FF0001202CE010E94000481112EC04091050210
:101000005091060260910F027091100201E426E6F1
:1010100030E0CE010E941406409103025091040278
:1010200060910D0270910E0227E630E0809111026E
:10103000909112020E941406409101025091020206
:1010400060910B0270910C0228E630E08091110251
:10105000909112020E941406DF91CF911F910F917F
:10106000FF90EF900895EF92FF920F931F93CF930D
:10107000DF938C0180910F029091100286369105CA
:10108000F9F40630110509F087C088E090E09093EC
:10109000100280930F0260E086E690E00E94BC019F
:1010A0000E94F7050E94F0000E9466012FEF84E382
:1010B0009CE0215080409040E1F700C000006FC0EC
:1010C0002091050230910602201731070CF461C00F
:1010D000101611060CF05DC0C0E0D0E0EE24E394E1
:1010E000F12C8C31910531F5F0921002E0920F0253
:1010F00080910502909106020197909306028093D9
:10110000050260E08CE190E00E94BC010E94F705BE
:101110000E94F0000E9466012FEF84E39CE02150C2
:1011200080409040E1F700C0000080910F02909154
:1011300010022AC020910F02309110022F5F3F4F02
:101140003093100220930F02209105023091060285
:1011500021503109309306022093050260E00E947D
:10116000BC010E94F7050E94F0000E9466012FEF6B
:1011700084E39CE0215080409040E1F700C00000F3
:1011800080910F029091100221960C171D0709F013
:10119000A8CF0630110519F083E4809314028091E2
:1011A000050290910602892B71F480E3809314026A
:1011B0008FEF9FEF9093160280931502109200021A
:1011C00082E480931302C0910F02D0911002CE01ED
:1011D0000E94000481112EC0409107025091080224
:1011E000609111027091120202E425E630E0CE0116
:1011F0000E941406409103025091040260910D0276
:1012000070910E0227E630E080910F02909110025B
:101210000E941406409101025091020260910B025B
:1012200070910C0228E630E080910F02909110023C
:101230000E941406DF91CF911F910F91FF90EF90C4
:101240000895EF92FF920F931F93CF93DF938C013A
:1012500080910D0290910E0287369105F9F40630C7
:10126000110509F087C08FE090E090930E02809303
:101270000D0260E087E690E00E94BC010E94F70545
:101280000E94F0000E9466012FEF84E39CE0215051
:1012900080409040E1F700C000007CC02091030234
:1012A00030910402201731070CF461C010161106AA
:1012B0000CF05DC0C0E0D0E0EE24E394F12C8C3162
:1012C000910531F5F0920E02E0920D028091030239
:1012D000909104020197909304028093030260E0CE
:1012E0008CE190E00E94BC010E94F7050E94F00092
:1012F0000E9466012FEF84E39CE0215080409040E3
:10130000E1F700C0000080910D0290910E022AC00A
:1013100020910D0230910E022F5F3F4F30930E024D
:1013200020930D02209103023091040221503109D3
:10133000309304022093030260E00E94BC010E94EB
:10134000F7050E94F0000E9466012FEF84E39CE005
:10135000215080409040E1F700C0000080910D02D4
:1013600090910E0221960C171D0709F0A8CF0630A8
:10137000110581F08091150290911602823091053D
:1013800021F481E48093140205C0049719F484E4E5
:10139000809314028091030290910402892B71F4CE
:1013A00080E3809314028FEF9FEF90931602809357
:1013B00015021092000283E480931302C0910D0283
:1013C000D0910E02CE010E94000481112EC04091E6
:1013D000070250910802609111027091120203E419
:1013E00025E630E0CE010E9414064091050250919E
:1013F000060260910F027091100226E630E08091A3
:101400000D0290910E020E9414064091010250912B
:10141000020260910B0270910C0228E630E080918C
:101420000D0290910E020E941406DF91CF911F9140
:101430000F91FF90EF900895EF92FF920F931F93FB
:10144000CF93DF938C0180910B0290910C02883630
:101450009105F9F40630110509F087C086E190E0A6
:1014600090930C0280930B0260E088E690E00E946B
:10147000BC010E94F7050E94F0000E9466012FEF58
:1014800084E39CE0215080409040E1F700C00000E0
:101490006FC02091010230910202201731070CF435
:1014A00061C0101611060CF05DC0C0E0D0E0EE2463
:1014B000E394F12C8C31910531F5F0920C02E0921D
:1014C0000B02809101029091020201979093020217
:1014D0008093010260E08CE190E00E94BC010E94D8
:1014E000F7050E94F0000E9466012FEF84E39CE064
:1014F000215080409040E1F700C0000080910B0235
:1015000090910C022AC020910B0230910C022F5FA7
:101510003F4F30930C0220930B0220910102309137
:10152000020221503109309302022093010260E04F
:101530000E94BC010E94F7050E94F0000E94660113
:101540002FEF84E39CE0215080409040E1F700C001
:10155000000080910B0290910C0221960C171D0740
:1015600009F0A8CF0630110519F081E48093140228
:101570008091010290910202892B71F480E38093A3
:1015800014028FEF9FEF9093160280931502109232
:10159000000284E480931302C0910B02D0910C02EC
:1015A000CE010E94000481112EC04091070250918B
:1015B0000802609111027091120204E425E630E005
:1015C000CE010E94140640910502509106026091DE
:1015D0000F027091100226E630E080910B0290918C
:1015E0000C020E9414064091030250910402609183
:1015F0000D0270910E0227E630E080910B0290916F
:101600000C020E941406DF91CF911F910F91FF9061
:10161000EF9008950E944A0117B85398E9E6F0E068
:1016200080818C608083E99A78940E9489008FE0A1
:101630000E94E9000E9408018FE00E942B0168943B
:10164000882482F8912C00E811E0C1E0D0E00F2E50
:10165000F0EFEF2EF1E0FF2EF02D0E9453051092D7
:101660001602109215020F2EF1E4BF2EF02D689491
:10167000CC24C1F8D12C07C080911502909116029C
:10168000892B09F060C00E949101319922C0D0924B
:101690001602C09215020E94F00061E085E690E01B
:1016A0000E94BC0161E087E690E00E94BC0185E6F3
:1016B00090E0909312028093110287E690E090935D
:1016C0000E0280930D02B092140281E0809300021A
:1016D000D3CF3399D1CF90921602809215020E94F7
:1016E000F00061E085E690E00E94BC0161E087E6E1
:1016F00090E00E94BC0161E088E690E00E94BC019D
:1017000061E086E690E00E94BC0185E690E090935F
:1017100012028093110286E690E09093100280936B
:101720000F0287E690E090930E0280930D0288E608
:1017300090E090930C0280930B02B092140281E02F
:101740008093000299CF0F2EFEEFCF2EF1E0DF2E17
:10175000F02D80910002811108C0809115029091B6
:101760001602019609F455C178CF0E94A5050E9482
:1017700029058FEF99E6E8E181509040E040E1F7DC
:1017800000C000000E941605FFEF29E688E1F15035
:1017900020408040E1F700C000000E9407059FEF55
:1017A000E9E6F8E19150E040F040E1F700C00000C8
:1017B0008091150290911602029709F061C00E9473
:1017C000660180911402813429F0809114028334DF
:1017D00079F72BC00E94F000F801D787C6870E94D6
:1017E0006601309918C08CE40E9456010E945E0187
:1017F00080930A020E94CD05FFEF29E688E1F150AF
:1018000020408040E1F700C000000E9432010E94A9
:1018100015070E943807F801178616860E94F00007
:10182000809114028134B1F2D0CF0E94F000F70110
:10183000D183C0830E946601329918C08CE40E9453
:1018400056010E945E0180930A020E94CD05FFEFBF
:1018500029E688E1F15020408040E1F700C0000017
:101860000E9432010E9415070E942109F70111828E
:1018700010820E94F000809114028334B1F298CF5C
:101880008091150290911602049709F062CF0E9490
:10189000660180911402813429F08091140282340F
:1018A00061F530C00E94F000F801D787C6870E941A
:1018B0006601309918C08CE40E9456010E945E01B6
:1018C00080930A020E94CD05FFEF29E688E1F150DE
:1018D00020408040E1F700C000000E9432010E94D9
:1018E00015070E943807F801178616860E94F00037
:1018F000809114028134B1F2D0CF809114028334EC
:1019000061F531C00E94F000F601D183C0830E94CE
:101910006601319918C08CE40E9456010E945E0154
:1019200080930A020E94CD05FFEF29E688E1F1507D
:1019300020408040E1F700C000000E9432010E9478
:1019400015070E943308F601118210820E94F000F0
:10195000809114028234B1F2D0CF80911402843489
:1019600009F08ECF2BC00E94F000F701D183C08315
:101970000E946601329918C08CE40E9456010E94B0
:101980005E0180930A020E94CD05FFEF29E688E1FF
:10199000F15020408040E1F700C000000E94320179
:1019A0000E9415070E942109F701118210820E94EE
:1019B000F000809114028334B1F2CFCF0E94F00086
:1019C000F801D183C0830E946601339918C08CE46A
:1019D0000E9456010E945E0180930A020E94CD057A
:1019E000FFEF29E688E1F15020408040E1F700C098
:1019F00000000E9432010E9415070E941C0AF80193
:101A0000118210820E94F000809114028434B1F29D
:101A100037CF0E94A5050E947C0580911302813476
:101A200019F40E9407050EC0823419F40E941605AD
:101A300009C0833419F40E94290504C0843411F4C8
:101A40000E943C05FFEF2EE984E2F15020408040E7
:101A5000E1F700C0000080911502909116020196F6
:101A6000C1F2FBCD1F920F920FB60F9211248F93EC
:101A70009F9386EF9FEF909316028093150280E369
:101A800080931402109200029F918F910F900FBECD
:0A1A90000F901F901895F894FFCFF7
:101A9A00010000000000000000000000000000003B
:101AAA00010000000000000000000000000000002B
:101ABA000100010001000000000000000000000019
:101ACA000100000001000000000001000100010007
:101ADA0001000000010000000000000000000100F9
:101AEA0000000000000000000000010001000100E9
:101AFA0000000000000000000000010000000000DB
:101B0A0000000000000000000000010001000100C8
:101B1A0000000000000000000000000000000000BB
:101B2A0000000000000001000100000000000000A9
:101B3A000000000000000100010000000000000099
:101B4A000000010001000100010001000100000085
:101B5A000000010001000100010001000100000075
:101B6A000000000000000100010000000000000069
:101B7A000000000000000100010000000000000059
:101B8A00000000000000000000000000000000004B
:0A1B9A00011C001C001C001C0000D0
:00000001FF
